{
  "_format": "hh-sol-artifact-1",
  "contractName": "MyWEB",
  "sourceName": "contracts/MyWEB.sol",
  "abi": [
    {
      "inputs": [
        {
          "internalType": "address",
          "name": "initialOwner",
          "type": "address"
        }
      ],
      "stateMutability": "nonpayable",
      "type": "constructor"
    },
    {
      "inputs": [],
      "name": "ERC721EnumerableForbiddenBatchMint",
      "type": "error"
    },
    {
      "inputs": [
        {
          "internalType": "address",
          "name": "sender",
          "type": "address"
        },
        {
          "internalType": "uint256",
          "name": "tokenId",
          "type": "uint256"
        },
        {
          "internalType": "address",
          "name": "owner",
          "type": "address"
        }
      ],
      "name": "ERC721IncorrectOwner",
      "type": "error"
    },
    {
      "inputs": [
        {
          "internalType": "address",
          "name": "operator",
          "type": "address"
        },
        {
          "internalType": "uint256",
          "name": "tokenId",
          "type": "uint256"
        }
      ],
      "name": "ERC721InsufficientApproval",
      "type": "error"
    },
    {
      "inputs": [
        {
          "internalType": "address",
          "name": "approver",
          "type": "address"
        }
      ],
      "name": "ERC721InvalidApprover",
      "type": "error"
    },
    {
      "inputs": [
        {
          "internalType": "address",
          "name": "operator",
          "type": "address"
        }
      ],
      "name": "ERC721InvalidOperator",
      "type": "error"
    },
    {
      "inputs": [
        {
          "internalType": "address",
          "name": "owner",
          "type": "address"
        }
      ],
      "name": "ERC721InvalidOwner",
      "type": "error"
    },
    {
      "inputs": [
        {
          "internalType": "address",
          "name": "receiver",
          "type": "address"
        }
      ],
      "name": "ERC721InvalidReceiver",
      "type": "error"
    },
    {
      "inputs": [
        {
          "internalType": "address",
          "name": "sender",
          "type": "address"
        }
      ],
      "name": "ERC721InvalidSender",
      "type": "error"
    },
    {
      "inputs": [
        {
          "internalType": "uint256",
          "name": "tokenId",
          "type": "uint256"
        }
      ],
      "name": "ERC721NonexistentToken",
      "type": "error"
    },
    {
      "inputs": [
        {
          "internalType": "address",
          "name": "owner",
          "type": "address"
        },
        {
          "internalType": "uint256",
          "name": "index",
          "type": "uint256"
        }
      ],
      "name": "ERC721OutOfBoundsIndex",
      "type": "error"
    },
    {
      "inputs": [],
      "name": "EnforcedPause",
      "type": "error"
    },
    {
      "inputs": [],
      "name": "ExpectedPause",
      "type": "error"
    },
    {
      "inputs": [
        {
          "internalType": "address",
          "name": "owner",
          "type": "address"
        }
      ],
      "name": "OwnableInvalidOwner",
      "type": "error"
    },
    {
      "inputs": [
        {
          "internalType": "address",
          "name": "account",
          "type": "address"
        }
      ],
      "name": "OwnableUnauthorizedAccount",
      "type": "error"
    },
    {
      "anonymous": false,
      "inputs": [
        {
          "indexed": true,
          "internalType": "address",
          "name": "owner",
          "type": "address"
        },
        {
          "indexed": true,
          "internalType": "address",
          "name": "approved",
          "type": "address"
        },
        {
          "indexed": true,
          "internalType": "uint256",
          "name": "tokenId",
          "type": "uint256"
        }
      ],
      "name": "Approval",
      "type": "event"
    },
    {
      "anonymous": false,
      "inputs": [
        {
          "indexed": true,
          "internalType": "address",
          "name": "owner",
          "type": "address"
        },
        {
          "indexed": true,
          "internalType": "address",
          "name": "operator",
          "type": "address"
        },
        {
          "indexed": false,
          "internalType": "bool",
          "name": "approved",
          "type": "bool"
        }
      ],
      "name": "ApprovalForAll",
      "type": "event"
    },
    {
      "anonymous": false,
      "inputs": [
        {
          "indexed": true,
          "internalType": "address",
          "name": "previousOwner",
          "type": "address"
        },
        {
          "indexed": true,
          "internalType": "address",
          "name": "newOwner",
          "type": "address"
        }
      ],
      "name": "OwnershipTransferred",
      "type": "event"
    },
    {
      "anonymous": false,
      "inputs": [
        {
          "indexed": false,
          "internalType": "address",
          "name": "account",
          "type": "address"
        }
      ],
      "name": "Paused",
      "type": "event"
    },
    {
      "anonymous": false,
      "inputs": [
        {
          "indexed": true,
          "internalType": "address",
          "name": "from",
          "type": "address"
        },
        {
          "indexed": true,
          "internalType": "address",
          "name": "to",
          "type": "address"
        },
        {
          "indexed": true,
          "internalType": "uint256",
          "name": "tokenId",
          "type": "uint256"
        }
      ],
      "name": "Transfer",
      "type": "event"
    },
    {
      "anonymous": false,
      "inputs": [
        {
          "indexed": false,
          "internalType": "address",
          "name": "account",
          "type": "address"
        }
      ],
      "name": "Unpaused",
      "type": "event"
    },
    {
      "inputs": [
        {
          "internalType": "address",
          "name": "to",
          "type": "address"
        },
        {
          "internalType": "uint256",
          "name": "tokenId",
          "type": "uint256"
        }
      ],
      "name": "approve",
      "outputs": [],
      "stateMutability": "nonpayable",
      "type": "function"
    },
    {
      "inputs": [
        {
          "internalType": "address",
          "name": "owner",
          "type": "address"
        }
      ],
      "name": "balanceOf",
      "outputs": [
        {
          "internalType": "uint256",
          "name": "",
          "type": "uint256"
        }
      ],
      "stateMutability": "view",
      "type": "function"
    },
    {
      "inputs": [
        {
          "internalType": "uint256",
          "name": "tokenId",
          "type": "uint256"
        }
      ],
      "name": "getApproved",
      "outputs": [
        {
          "internalType": "address",
          "name": "",
          "type": "address"
        }
      ],
      "stateMutability": "view",
      "type": "function"
    },
    {
      "inputs": [
        {
          "internalType": "address",
          "name": "owner",
          "type": "address"
        },
        {
          "internalType": "address",
          "name": "operator",
          "type": "address"
        }
      ],
      "name": "isApprovedForAll",
      "outputs": [
        {
          "internalType": "bool",
          "name": "",
          "type": "bool"
        }
      ],
      "stateMutability": "view",
      "type": "function"
    },
    {
      "inputs": [],
      "name": "name",
      "outputs": [
        {
          "internalType": "string",
          "name": "",
          "type": "string"
        }
      ],
      "stateMutability": "view",
      "type": "function"
    },
    {
      "inputs": [],
      "name": "owner",
      "outputs": [
        {
          "internalType": "address",
          "name": "",
          "type": "address"
        }
      ],
      "stateMutability": "view",
      "type": "function"
    },
    {
      "inputs": [
        {
          "internalType": "uint256",
          "name": "tokenId",
          "type": "uint256"
        }
      ],
      "name": "ownerOf",
      "outputs": [
        {
          "internalType": "address",
          "name": "",
          "type": "address"
        }
      ],
      "stateMutability": "view",
      "type": "function"
    },
    {
      "inputs": [],
      "name": "pause",
      "outputs": [],
      "stateMutability": "nonpayable",
      "type": "function"
    },
    {
      "inputs": [],
      "name": "paused",
      "outputs": [
        {
          "internalType": "bool",
          "name": "",
          "type": "bool"
        }
      ],
      "stateMutability": "view",
      "type": "function"
    },
    {
      "inputs": [],
      "name": "renounceOwnership",
      "outputs": [],
      "stateMutability": "nonpayable",
      "type": "function"
    },
    {
      "inputs": [
        {
          "internalType": "address",
          "name": "to",
          "type": "address"
        }
      ],
      "name": "safeMint",
      "outputs": [],
      "stateMutability": "nonpayable",
      "type": "function"
    },
    {
      "inputs": [
        {
          "internalType": "address",
          "name": "from",
          "type": "address"
        },
        {
          "internalType": "address",
          "name": "to",
          "type": "address"
        },
        {
          "internalType": "uint256",
          "name": "tokenId",
          "type": "uint256"
        }
      ],
      "name": "safeTransferFrom",
      "outputs": [],
      "stateMutability": "nonpayable",
      "type": "function"
    },
    {
      "inputs": [
        {
          "internalType": "address",
          "name": "from",
          "type": "address"
        },
        {
          "internalType": "address",
          "name": "to",
          "type": "address"
        },
        {
          "internalType": "uint256",
          "name": "tokenId",
          "type": "uint256"
        },
        {
          "internalType": "bytes",
          "name": "data",
          "type": "bytes"
        }
      ],
      "name": "safeTransferFrom",
      "outputs": [],
      "stateMutability": "nonpayable",
      "type": "function"
    },
    {
      "inputs": [
        {
          "internalType": "address",
          "name": "operator",
          "type": "address"
        },
        {
          "internalType": "bool",
          "name": "approved",
          "type": "bool"
        }
      ],
      "name": "setApprovalForAll",
      "outputs": [],
      "stateMutability": "nonpayable",
      "type": "function"
    },
    {
      "inputs": [
        {
          "internalType": "bytes4",
          "name": "interfaceId",
          "type": "bytes4"
        }
      ],
      "name": "supportsInterface",
      "outputs": [
        {
          "internalType": "bool",
          "name": "",
          "type": "bool"
        }
      ],
      "stateMutability": "view",
      "type": "function"
    },
    {
      "inputs": [],
      "name": "symbol",
      "outputs": [
        {
          "internalType": "string",
          "name": "",
          "type": "string"
        }
      ],
      "stateMutability": "view",
      "type": "function"
    },
    {
      "inputs": [
        {
          "internalType": "uint256",
          "name": "index",
          "type": "uint256"
        }
      ],
      "name": "tokenByIndex",
      "outputs": [
        {
          "internalType": "uint256",
          "name": "",
          "type": "uint256"
        }
      ],
      "stateMutability": "view",
      "type": "function"
    },
    {
      "inputs": [
        {
          "internalType": "address",
          "name": "owner",
          "type": "address"
        },
        {
          "internalType": "uint256",
          "name": "index",
          "type": "uint256"
        }
      ],
      "name": "tokenOfOwnerByIndex",
      "outputs": [
        {
          "internalType": "uint256",
          "name": "",
          "type": "uint256"
        }
      ],
      "stateMutability": "view",
      "type": "function"
    },
    {
      "inputs": [
        {
          "internalType": "uint256",
          "name": "tokenId",
          "type": "uint256"
        }
      ],
      "name": "tokenURI",
      "outputs": [
        {
          "internalType": "string",
          "name": "",
          "type": "string"
        }
      ],
      "stateMutability": "view",
      "type": "function"
    },
    {
      "inputs": [],
      "name": "totalSupply",
      "outputs": [
        {
          "internalType": "uint256",
          "name": "",
          "type": "uint256"
        }
      ],
      "stateMutability": "view",
      "type": "function"
    },
    {
      "inputs": [
        {
          "internalType": "address",
          "name": "from",
          "type": "address"
        },
        {
          "internalType": "address",
          "name": "to",
          "type": "address"
        },
        {
          "internalType": "uint256",
          "name": "tokenId",
          "type": "uint256"
        }
      ],
      "name": "transferFrom",
      "outputs": [],
      "stateMutability": "nonpayable",
      "type": "function"
    },
    {
      "inputs": [
        {
          "internalType": "address",
          "name": "newOwner",
          "type": "address"
        }
      ],
      "name": "transferOwnership",
      "outputs": [],
      "stateMutability": "nonpayable",
      "type": "function"
    },
    {
      "inputs": [],
      "name": "unpause",
      "outputs": [],
      "stateMutability": "nonpayable",
      "type": "function"
    }
  ],
  "bytecode": "0x60806040523480156200001157600080fd5b506040516200198438038062001984833981016040819052620000349162000138565b806040518060400160405280600581526020016426bcaba2a160d91b815250604051806040016040528060038152602001622ba2a160e91b81525081600090816200008091906200020f565b5060016200008f82826200020f565b5050600a805460ff19169055506001600160a01b038116620000cb57604051631e4fbdf760e01b81526000600482015260240160405180910390fd5b620000d681620000de565b5050620002db565b600a80546001600160a01b03838116610100818102610100600160a81b031985161790945560405193909204169182907f8be0079c531659141344cd1fd0a4f28419497f9722a3daafe3b4186f6b6457e090600090a35050565b6000602082840312156200014b57600080fd5b81516001600160a01b03811681146200016357600080fd5b9392505050565b634e487b7160e01b600052604160045260246000fd5b600181811c908216806200019557607f821691505b602082108103620001b657634e487b7160e01b600052602260045260246000fd5b50919050565b601f8211156200020a57600081815260208120601f850160051c81016020861015620001e55750805b601f850160051c820191505b818110156200020657828155600101620001f1565b5050505b505050565b81516001600160401b038111156200022b576200022b6200016a565b62000243816200023c845462000180565b84620001bc565b602080601f8311600181146200027b5760008415620002625750858301515b600019600386901b1c1916600185901b17855562000206565b600085815260208120601f198616915b82811015620002ac578886015182559484019460019091019084016200028b565b5085821015620002cb5787850151600019600388901b60f8161c191681555b5050505050600190811b01905550565b61169980620002eb6000396000f3fe608060405234801561001057600080fd5b506004361061014d5760003560e01c80635c975abb116100c357806395d89b411161007c57806395d89b411461029f578063a22cb465146102a7578063b88d4fde146102ba578063c87b56dd146102cd578063e985e9c5146102e0578063f2fde38b146102f357600080fd5b80635c975abb146102485780636352211e1461025357806370a0823114610266578063715018a6146102795780638456cb59146102815780638da5cb5b1461028957600080fd5b806323b872dd1161011557806323b872dd146101e15780632f745c59146101f45780633f4ba83a1461020757806340d097c31461020f57806342842e0e146102225780634f6ccce71461023557600080fd5b806301ffc9a71461015257806306fdde031461017a578063081812fc1461018f578063095ea7b3146101ba57806318160ddd146101cf575b600080fd5b610165610160366004611266565b610306565b60405190151581526020015b60405180910390f35b610182610317565b60405161017191906112d3565b6101a261019d3660046112e6565b6103a9565b6040516001600160a01b039091168152602001610171565b6101cd6101c836600461131b565b6103d2565b005b6008545b604051908152602001610171565b6101cd6101ef366004611345565b6103e1565b6101d361020236600461131b565b610471565b6101cd6104d6565b6101cd61021d366004611381565b6104e8565b6101cd610230366004611345565b610509565b6101d36102433660046112e6565b610529565b600a5460ff16610165565b6101a26102613660046112e6565b610582565b6101d3610274366004611381565b61058d565b6101cd6105d5565b6101cd6105e7565b600a5461010090046001600160a01b03166101a2565b6101826105f7565b6101cd6102b536600461139c565b610606565b6101cd6102c83660046113ee565b610611565b6101826102db3660046112e6565b610628565b6101656102ee3660046114ca565b610690565b6101cd610301366004611381565b6106be565b6000610311826106fc565b92915050565b606060008054610326906114fd565b80601f0160208091040260200160405190810160405280929190818152602001828054610352906114fd565b801561039f5780601f106103745761010080835404028352916020019161039f565b820191906000526020600020905b81548152906001019060200180831161038257829003601f168201915b5050505050905090565b60006103b482610721565b506000828152600460205260409020546001600160a01b0316610311565b6103dd82823361075a565b5050565b6001600160a01b03821661041057604051633250574960e11b8152600060048201526024015b60405180910390fd5b600061041d838333610767565b9050836001600160a01b0316816001600160a01b03161461046b576040516364283d7b60e01b81526001600160a01b0380861660048301526024820184905282166044820152606401610407565b50505050565b600061047c8361058d565b82106104ad5760405163295f44f760e21b81526001600160a01b038416600482015260248101839052604401610407565b506001600160a01b03919091166000908152600660209081526040808320938352929052205490565b6104de61077c565b6104e66107af565b565b600b8054600091826104f98361154d565b9190505590506103dd8282610801565b61052483838360405180602001604052806000815250610611565b505050565b600061053460085490565b821061055d5760405163295f44f760e21b81526000600482015260248101839052604401610407565b6008828154811061057057610570611566565b90600052602060002001549050919050565b600061031182610721565b60006001600160a01b0382166105b9576040516322718ad960e21b815260006004820152602401610407565b506001600160a01b031660009081526003602052604090205490565b6105dd61077c565b6104e6600061081b565b6105ef61077c565b6104e6610875565b606060018054610326906114fd565b6103dd3383836108b2565b61061c8484846103e1565b61046b84848484610951565b606061063382610721565b50600061063e610a7a565b9050600081511161065e5760405180602001604052806000815250610689565b8061066884610a9a565b60405160200161067992919061157c565b6040516020818303038152906040525b9392505050565b6001600160a01b03918216600090815260056020908152604080832093909416825291909152205460ff1690565b6106c661077c565b6001600160a01b0381166106f057604051631e4fbdf760e01b815260006004820152602401610407565b6106f98161081b565b50565b60006001600160e01b0319821663780e9d6360e01b1480610311575061031182610b2d565b6000818152600260205260408120546001600160a01b03168061031157604051637e27328960e01b815260048101849052602401610407565b6105248383836001610b7d565b6000610774848484610c83565b949350505050565b600a546001600160a01b036101009091041633146104e65760405163118cdaa760e01b8152336004820152602401610407565b6107b7610c98565b600a805460ff191690557f5db9ee0a495bf2e6ff9c91a7834c1ba4fdd244a5e8aa4e537bd38aeae4b073aa335b6040516001600160a01b03909116815260200160405180910390a1565b6103dd828260405180602001604052806000815250610cbb565b600a80546001600160a01b03838116610100818102610100600160a81b031985161790945560405193909204169182907f8be0079c531659141344cd1fd0a4f28419497f9722a3daafe3b4186f6b6457e090600090a35050565b61087d610cd2565b600a805460ff191660011790557f62e78cea01bee320cd4e420270b5ea74000d11b0c9f74754ebdbfc544b05a2586107e43390565b6001600160a01b0382166108e457604051630b61174360e31b81526001600160a01b0383166004820152602401610407565b6001600160a01b03838116600081815260056020908152604080832094871680845294825291829020805460ff191686151590811790915591519182527f17307eab39ab6107e8899845ad3d59bd9653f200f220920489ca2b5937696c31910160405180910390a3505050565b6001600160a01b0383163b1561046b57604051630a85bd0160e11b81526001600160a01b0384169063150b7a02906109939033908890879087906004016115ab565b6020604051808303816000875af19250505080156109ce575060408051601f3d908101601f191682019092526109cb918101906115e8565b60015b610a37573d8080156109fc576040519150601f19603f3d011682016040523d82523d6000602084013e610a01565b606091505b508051600003610a2f57604051633250574960e11b81526001600160a01b0385166004820152602401610407565b805181602001fd5b6001600160e01b03198116630a85bd0160e11b14610a7357604051633250574960e11b81526001600160a01b0385166004820152602401610407565b5050505050565b606060405180606001604052806035815260200161162f60359139905090565b60606000610aa783610cf6565b600101905060008167ffffffffffffffff811115610ac757610ac76113d8565b6040519080825280601f01601f191660200182016040528015610af1576020820181803683370190505b5090508181016020015b600019016f181899199a1a9b1b9c1cb0b131b232b360811b600a86061a8153600a8504945084610afb57509392505050565b60006001600160e01b031982166380ac58cd60e01b1480610b5e57506001600160e01b03198216635b5e139f60e01b145b8061031157506301ffc9a760e01b6001600160e01b0319831614610311565b8080610b9157506001600160a01b03821615155b15610c53576000610ba184610721565b90506001600160a01b03831615801590610bcd5750826001600160a01b0316816001600160a01b031614155b8015610be05750610bde8184610690565b155b15610c095760405163a9fbf51f60e01b81526001600160a01b0384166004820152602401610407565b8115610c515783856001600160a01b0316826001600160a01b03167f8c5be1e5ebec7d5bd14f71427d1e84f3dd0314c0f7b2291e5b200ac8c7c3b92560405160405180910390a45b505b5050600090815260046020526040902080546001600160a01b0319166001600160a01b0392909216919091179055565b6000610c8d610cd2565b610774848484610dce565b600a5460ff166104e657604051638dfc202b60e01b815260040160405180910390fd5b610cc58383610e9b565b6105246000848484610951565b600a5460ff16156104e65760405163d93c066560e01b815260040160405180910390fd5b60008072184f03e93ff9f4daa797ed6e38ed64bf6a1f0160401b8310610d355772184f03e93ff9f4daa797ed6e38ed64bf6a1f0160401b830492506040015b6d04ee2d6d415b85acef81000000008310610d61576d04ee2d6d415b85acef8100000000830492506020015b662386f26fc100008310610d7f57662386f26fc10000830492506010015b6305f5e1008310610d97576305f5e100830492506008015b6127108310610dab57612710830492506004015b60648310610dbd576064830492506002015b600a83106103115760010192915050565b600080610ddc858585610f00565b90506001600160a01b038116610e3957610e3484600880546000838152600960205260408120829055600182018355919091527ff3f7a9fe364faab93b216da50a3214154f22a0a2b415b23a84c8169e8b636ee30155565b610e5c565b846001600160a01b0316816001600160a01b031614610e5c57610e5c8185610ff9565b6001600160a01b038516610e7857610e738461108a565b610774565b846001600160a01b0316816001600160a01b031614610774576107748585611139565b6001600160a01b038216610ec557604051633250574960e11b815260006004820152602401610407565b6000610ed383836000610767565b90506001600160a01b03811615610524576040516339e3563760e11b815260006004820152602401610407565b6000828152600260205260408120546001600160a01b0390811690831615610f2d57610f2d818486611189565b6001600160a01b03811615610f6b57610f4a600085600080610b7d565b6001600160a01b038116600090815260036020526040902080546000190190555b6001600160a01b03851615610f9a576001600160a01b0385166000908152600360205260409020805460010190555b60008481526002602052604080822080546001600160a01b0319166001600160a01b0389811691821790925591518793918516917fddf252ad1be2c89b69c2b068fc378daa952ba7f163c4a11628f55a4df523b3ef91a4949350505050565b60006110048361058d565b600083815260076020526040902054909150808214611057576001600160a01b03841660009081526006602090815260408083208584528252808320548484528184208190558352600790915290208190555b5060009182526007602090815260408084208490556001600160a01b039094168352600681528383209183525290812055565b60085460009061109c90600190611605565b600083815260096020526040812054600880549394509092849081106110c4576110c4611566565b9060005260206000200154905080600883815481106110e5576110e5611566565b600091825260208083209091019290925582815260099091526040808220849055858252812055600880548061111d5761111d611618565b6001900381819060005260206000200160009055905550505050565b600060016111468461058d565b6111509190611605565b6001600160a01b039093166000908152600660209081526040808320868452825280832085905593825260079052919091209190915550565b6111948383836111ed565b610524576001600160a01b0383166111c257604051637e27328960e01b815260048101829052602401610407565b60405163177e802f60e01b81526001600160a01b038316600482015260248101829052604401610407565b60006001600160a01b038316158015906107745750826001600160a01b0316846001600160a01b0316148061122757506112278484610690565b806107745750506000908152600460205260409020546001600160a01b03908116911614919050565b6001600160e01b0319811681146106f957600080fd5b60006020828403121561127857600080fd5b813561068981611250565b60005b8381101561129e578181015183820152602001611286565b50506000910152565b600081518084526112bf816020860160208601611283565b601f01601f19169290920160200192915050565b60208152600061068960208301846112a7565b6000602082840312156112f857600080fd5b5035919050565b80356001600160a01b038116811461131657600080fd5b919050565b6000806040838503121561132e57600080fd5b611337836112ff565b946020939093013593505050565b60008060006060848603121561135a57600080fd5b611363846112ff565b9250611371602085016112ff565b9150604084013590509250925092565b60006020828403121561139357600080fd5b610689826112ff565b600080604083850312156113af57600080fd5b6113b8836112ff565b9150602083013580151581146113cd57600080fd5b809150509250929050565b634e487b7160e01b600052604160045260246000fd5b6000806000806080858703121561140457600080fd5b61140d856112ff565b935061141b602086016112ff565b925060408501359150606085013567ffffffffffffffff8082111561143f57600080fd5b818701915087601f83011261145357600080fd5b813581811115611465576114656113d8565b604051601f8201601f19908116603f0116810190838211818310171561148d5761148d6113d8565b816040528281528a60208487010111156114a657600080fd5b82602086016020830137600060208483010152809550505050505092959194509250565b600080604083850312156114dd57600080fd5b6114e6836112ff565b91506114f4602084016112ff565b90509250929050565b600181811c9082168061151157607f821691505b60208210810361153157634e487b7160e01b600052602260045260246000fd5b50919050565b634e487b7160e01b600052601160045260246000fd5b60006001820161155f5761155f611537565b5060010190565b634e487b7160e01b600052603260045260246000fd5b6000835161158e818460208801611283565b8351908301906115a2818360208801611283565b01949350505050565b6001600160a01b03858116825284166020820152604081018390526080606082018190526000906115de908301846112a7565b9695505050505050565b6000602082840312156115fa57600080fd5b815161068981611250565b8181038181111561031157610311611537565b634e487b7160e01b600052603160045260246000fdfe697066733a2f2f516d57795a7856794434735a69326d596837794a6b635144386a69346b54503336566d64584d3232653842446345a2646970667358221220722126c5e20f79549dbba1bbaa35b4563330802a753817779c879cb07ed1741964736f6c63430008140033",
  "linkReferences": {},
  "deployedLinkReferences": {}
}